:100000000C942A000C94C4010C94EB010C94120281
:100010000C9447000C9447000C948A050C94380506
:100020000C9461050C940F050C94E6040C94BD042B
:100030000C9447000C9447000C9447000C94470024
:100040000C9447000C9447000C9447000C94470014
:100050000C94470011241FBECFE5D8E0DEBFCDBF12
:1000600010E0A0E6B0E0E0ECF0E102C005900D92F7
:10007000AE37B107D9F710E0AEE7B0E001C01D928E
:10008000AB39B107E1F70E94FD050C945E080C94B2
:1000900000008823A9F48AB321E030E0062E02C0D4
:1000A000220F331F0A94E2F720952823842F90E033
:1000B00002C0880F991F6A95E2F7282B2ABB089582
:1000C0008130A9F487B321E030E0062E02C0220F70
:1000D000331F0A94E2F720952823842F90E002C072
:1000E000880F991F6A95E2F7282B27BB0895823065
:1000F000A9F484B321E030E0062E02C0220F331FA2
:100100000A94E2F720952823842F90E002C0880FFC
:10011000991F6A95E2F7282B24BB08958330A1F438
:1001200081B321E030E0062E02C0220F331F0A9473
:10013000E2F720952823842F90E002C0880F991FB2
:100140006A95E2F7282B21BB08958823A9F48BB385
:1001500021E030E0062E02C0220F331F0A94E2F79E
:1001600020952823842F90E002C0880F991F6A955C
:10017000E2F7282B2BBB08958130A9F488B321E046
:1001800030E0062E02C0220F331F0A94E2F72095BA
:100190002823842F90E002C0880F991F6A95E2F708
:1001A000282B28BB08958230A9F485B321E030E0E4
:1001B000062E02C0220F331F0A94E2F7209528234F
:1001C000842F90E002C0880F991F6A95E2F7282BD0
:1001D00025BB08958330A1F482B321E030E0062EE0
:1001E00002C0220F331F0A94E2F720952823842FA0
:1001F00090E002C0880F991F6A95E2F7282B22BB76
:100200000895882311F489B307C0813011F486B3AF
:1002100003C0823049F483B390E002C0959587957E
:100220006A95E2F781700895833011F084E60895AD
:1002300080B390E002C0959587956A95E2F781704A
:10024000089541E00E94A500089582E066E00E94C2
:100250000101089582E066E00E940101813021F4ED
:1002600082E066E040E003C082E066E041E00E9498
:10027000A500089582E066E040E00E94A500089590
:1002800082E066E041E00E94A500089582E066E019
:1002900041E00E9449000895813051F0813028F0FA
:1002A000823061F08330B9F410C085B78E7F02C010
:1002B00085B7816085BF85B78D7F05C085B78E7F87
:1002C00085BF85B7826085BF089585B7816085BF8A
:1002D00085B7826085BF0895813051F0813028F064
:1002E000823061F08330B9F410C085B78B7F02C0D3
:1002F00085B7846085BF85B7877F05C085B78B7F4D
:1003000085BF85B7886085BF089585B7846085BF40
:1003100085B7886085BF0895823019F0833041F435
:1003200004C084B78F7B84BF089584B7806484BF82
:1003300008958BB780648BBF08958BB780688BBF9F
:1003400008958BB780628BBF08958BB78F7B8BBF6F
:1003500008958BB78F778BBF08958BB78F7D8BBF39
:10036000089578940895F894089590938300809365
:100370008200089590938100809380000895909367
:100380007F0080937E0008951F920F920FB60F9208
:1003900011242F933F934F935F936F937F938F938A
:1003A0009F93AF93BF93EF93FF93E0918200F091FF
:1003B00083000995FF91EF91BF91AF919F918F912C
:1003C0007F916F915F914F913F912F910F900FBE51
:1003D0000F901F9018951F920F920FB60F92112435
:1003E0002F933F934F935F936F937F938F939F933D
:1003F000AF93BF93EF93FF93E0918000F091810062
:100400000995FF91EF91BF91AF919F918F917F914E
:100410006F915F914F913F912F910F900FBE0F9071
:100420001F9018951F920F920FB60F9211242F93C1
:100430003F934F935F936F937F938F939F93AF936C
:10044000BF93EF93FF93E0917E00F0917F000995B9
:10045000FF91EF91BF91AF919F918F917F916F919C
:100460005F914F913F912F910F900FBE0F901F9072
:100470001895813059F0813030F0823051F083305E
:1004800069F084E6089580E065E005C080E064E0FE
:1004900002C080E066E00E940101089581E067E00B
:1004A0000E9401010895813071F0813028F082307E
:1004B00089F08330E9F415C080E065E00E94010115
:1004C000813011F51EC080E064E00E94010181309E
:1004D00009F51DC080E066E00E940101813001F550
:1004E0001CC081E067E00E940101813019F51CC049
:1004F000813081F0813040F0823091F08330F9F426
:1005000019C080E065E012C080E065E00BC080E0CB
:1005100064E00CC080E064E005C080E066E006C0F6
:1005200080E066E041E003C081E067E040E00E94D7
:10053000A500089581E067E041E00E94A5000895CC
:10054000813051F0813028F0823049F0833091F4CD
:100550000CC080E065E005C080E064E002C080E09F
:1005600066E040E00E94A500089581E067E040E079
:100570000E94A5000895813051F0813028F082302A
:1005800049F0833091F40CC080E065E005C080E064
:1005900064E002C080E066E041E00E94A5000895AA
:1005A00081E067E041E00E94A5000895813051F0AC
:1005B000813028F0823049F0833091F40CC080E023
:1005C00065E005C080E064E002C080E066E041E0F4
:1005D0000E944900089581E067E041E00E944900DF
:1005E0000895E0E0F0E006C031966AE070E00E9415
:1005F0004A08CB010097C1F78E2F0895CF92DF9262
:10060000EF92FF920F931F936B017C01042F21E067
:1006100030E040E050E010E009C0CA01B901A70194
:1006200096010E942B089B01AC011F5F1017A8F3D5
:10063000B901CA011F910F91FF90EF90DF90CF9009
:1006400008958F929F92AF92BF92CF92DF92EF92D6
:10065000FF920F931F93CF93DF938C01EB01CB019C
:100660000E94F102C82ED82EDA9490E0019778010A
:10067000E80EF91E01965E0110E04C012BC0CE0180
:100680006AE070E00E944A08EB014F5F842F90E01F
:100690008E179F07A4F3F701C08300E061E070E0CC
:1006A00080E090E007C02AE030E040E050E00E94A7
:1006B0002B080F5F0D15B8F39E0140E050E00E943B
:1006C0002B08E501C61BD70B1F5FDA940894E108DD
:1006D000F1085E011C1528F441E0F401E11BF10969
:1006E000D5CFDF91CF911F910F91FF90EF90DF90C9
:1006F000CF90BF90AF909F908F900895813051F030
:10070000813028F0823061F0833099F40CC083B7D7
:100710008F7B02C083B7806483BF83B7877F08C0A5
:1007200083B78F7B02C083B7806483BF83B7886041
:1007300083BF83B7887F862B83BF6093930041304C
:1007400051F0413028F0423061F04330B9F410C02C
:1007500083B78F7E02C083B7806183BF83B78F7DED
:1007600005C083B78F7E83BF83B7806283BF089540
:1007700083B7806183BF83B7806283BF089589B7E1
:10078000816089BF089589B78E7F89BF089589B731
:10079000826089BF089589B78D7F89BF089590933E
:1007A000910080939000089590938F0080938E0025
:1007B000089582BF08958CBF089582B7089583B7C6
:1007C000887F83BF089593B780919300892B83BF5F
:1007D00008958230D9F0833028F4882341F08130A5
:1007E00081F50EC08330F1F0843059F51EC08FB50D
:1007F0008E7F8FBD8FB58D7F8FBD8EB5877F0EC0ED
:100800008FB58E7F8FBD8FB58D7F14C08FB58E7FD6
:100810008FBD8FB58D7F8FBD8EB588608EBD8EB537
:100820008F7E0EC08FB58E7F02C08FB581608FBD69
:100830008FB582608FBD8EB588608EBD8EB58061AC
:100840008EBD413051F0413028F0423061F04330EC
:1008500099F40CC08FB58F7B02C08FB580648FBDBB
:100860008FB58F7708C08FB58F7B02C08FB580643E
:100870008FBD8FB580688FBD213051F0213028F0B9
:10088000223061F0233099F40CC08FB58F7E02C006
:100890008FB580618FBD8FB58F7D08C08FB58F7E7E
:1008A00002C08FB580618FBD8FB580628FBD8EB560
:1008B000887F8EBD8EB5862B8EBD60939200089585
:1008C000882321F48EB580648EBD0895813019F49B
:1008D0008EB58F7B8EBD08959DBD8CBD08959BBD4B
:1008E0008ABD089599BD88BD089597BD86BD0895B8
:1008F0002CB53DB5C90108958EB5887F8EBD08958C
:100900008EB5887F8EBD9EB580919200892B8EBD5D
:10091000089589B7806289BF089589B78F7D89BF9F
:10092000089589B7846089BF089589B78B7F89BF8F
:10093000089589B7806189BF089589B78F7E89BF7F
:10094000089589B7886089BF089589B7877F89BF6F
:10095000089590938D0080938C00089590938B0060
:1009600080938A0008959093890080938800089569
:10097000909387008093860008951F920F920FB680
:100980000F9211242F933F934F935F936F937F9315
:100990008F939F93AF93BF93EF93FF93E09190005A
:1009A000F0919100309709F00995FF91EF91BF9177
:1009B000AF919F918F917F916F915F914F913F91F7
:1009C0002F910F900FBE0F901F9018951F920F92AE
:1009D0000FB60F9211242F933F934F935F936F9312
:1009E0007F938F939F93AF93BF93EF93FF93E09188
:1009F0008E00F0918F00309709F00995FF91EF91EB
:100A0000BF91AF919F918F917F916F915F914F9126
:100A10003F912F910F900FBE0F901F9018951F922E
:100A20000F920FB60F9211242F933F934F935F9322
:100A30006F937F938F939F93AF93BF93EF93FF93A6
:100A4000E0918C00F0918D00309709F00995FF91AD
:100A5000EF91BF91AF919F918F917F916F915F9136
:100A60004F913F912F910F900FBE0F901F901895AF
:100A70001F920F920FB60F9211242F933F934F9313
:100A80005F936F937F938F939F93AF93BF93EF93F6
:100A9000FF93E0918A00F0918B00309709F009955F
:100AA000FF91EF91BF91AF919F918F917F916F9146
:100AB0005F914F913F912F910F900FBE0F901F901C
:100AC00018951F920F920FB60F9211242F933F93F8
:100AD0004F935F936F937F938F939F93AF93BF9346
:100AE000EF93FF93E0918800F0918900309709F02F
:100AF0000995FF91EF91BF91AF919F918F917F9158
:100B00006F915F914F913F912F910F900FBE0F907A
:100B10001F9018951F920F920FB60F9211242F93CA
:100B20003F934F935F936F937F938F939F93AF9375
:100B3000BF93EF93FF93E0918600F0918700309789
:100B400009F00995FF91EF91BF91AF919F918F911E
:100B50007F916F915F914F913F912F910F900FBEB9
:100B60000F901F901895CF92DF92EF92FF920F9304
:100B70001F937B018C016A011DBC1CBC82E064E0F8
:100B800040E020E00E94E9030894E108F108FBBC82
:100B9000EABCD0928B00C0928A0089B7806189BF7D
:100BA0001F910F91FF90EF90DF90CF90089580916B
:100BB0009400813049F48091600090916100019629
:100BC0009093610080936000089580919400882341
:100BD00021F481E08093940002C0109294000E945E
:100BE000400184EF91E028EC30E0F9013197F1F712
:100BF0000197D9F70E943A010895AF92BF92CF9220
:100C0000DF92EF92FF920F931F93DF93CF9300D069
:100C100000D0CDB7DEB70E94460119821A821B822E
:100C20001C8285EE95E00E94BA0180E062E040E01F
:100C30000E947E0382E00E946C010E94BF030E941A
:100C40009D0187ED95E00E94CF0383E00E94D602CC
:100C500080E00E94D6020E9482070E94B10100E05B
:100C600010E05E010894A11CB11C93E0C92ED12CA8
:100C7000CC0EDD1E80EDE82E87E0F82E80919400EA
:100C80008130E9F4809160009091610082549F402E
:100C9000B0F083E00E945302109261001092600055
:100CA0001F5F1C3321F40F5F1C821B8210E00C338A
:100CB00031F41A8219821C821B8200E010E0C50107
:100CC000602F70E00E942103C601612F70E00E9436
:100CD000210381E00E94AA0682E00E94AA0683E026
:100CE0000E94AA068B8160E00E94CD06C701019791
:100CF000F1F780E00E94AA0682E00E94AA0683E043
:100D00000E94AA068C8161E00E94CD06C70101976E
:100D1000F1F781E00E94AA0680E00E94AA0683E023
:100D20000E94AA06898162E00E94CD06C701019750
:100D3000F1F780E00E94AA0682E00E94AA0680E005
:100D40000E94AA068A8163E00E94CD06C70101972E
:100D5000F1F794CF813061F0813028F0823069F072
:100D60008330D1F412C0809167006091680009C09F
:100D700080916E0060916F0004C080917500609159
:100D8000760041E00E94A500089580917C0060916A
:100D90007D0041E00E94A50008951F93182F613047
:100DA00091F1613038F0623009F456C0633009F0D7
:100DB000A7C07BC0482F41708091620060916300A2
:100DC0000E94A500412F469541708091620060917C
:100DD00064000E94A50016951695412F41708091E0
:100DE0006200609165000E94A500169511708091C7
:100DF000620060916600412F0E94A500809167000B
:100E0000609168007AC0482F4170809169006091BC
:100E10006A000E94A500412F4695417080916900AB
:100E200060916B000E94A50016951695412F4170A8
:100E30008091690060916C000E94A5001695117068
:100E40008091690060916D00412F0E94A500809102
:100E50006E0060916F0051C0482F4170809170000A
:100E6000609171000E94A500412F469541708091CC
:100E70007000609172000E94A50016951695412F92
:100E8000417080917000609173000E94A5001695DA
:100E900011708091700060917400412F0E94A50034
:100EA000809175006091760028C0482F4170809134
:100EB0007700609178000E94A500412F469541700F
:100EC00080917700609179000E94A5001695169593
:100ED000412F41708091770060917A000E94A500B7
:100EE000169511708091770060917B00412F0E94D0
:100EF000A50080917C0060917D0040E00E94A500EB
:100F00001F910895809162006091630041E00E940A
:100F10004900809162006091640041E00E944900B4
:100F2000809162006091650041E00E9449008091DB
:100F300062006091660041E00E9449008091670074
:100F40006091680041E00E944900809169006091D1
:100F50006A0041E00E9449008091690060916B0045
:100F600041E00E9449008091690060916C0041E07D
:100F70000E9449008091690060916D0041E00E94EB
:100F8000490080916E0060916F0041E00E9449002D
:100F9000809170006091710041E00E944900809151
:100FA00070006091720041E00E94490080917000E1
:100FB0006091730041E00E9449008091700060914F
:100FC000740041E00E9449008091750060917600B4
:100FD00041E00E944900809177006091780041E0F3
:100FE0000E944900809177006091790041E00E9461
:100FF00049008091770060917A0041E00E944900A9
:101000008091770060917B0041E00E9449008091CF
:101010007C0060917D0041E00E9449008091670062
:101020006091680041E00E94A50080916E0060918F
:101030006F0041E00E94A5008091750060917600EC
:1010400041E00E94A50080917C0060917D0041E01C
:101050000E94A5000895629FD001739FF001829FB6
:10106000E00DF11D649FE00DF11D929FF00D839F37
:10107000F00D749FF00D659FF00D9927729FB00DD4
:10108000E11DF91F639FB00DE11DF91FBD01CF01E7
:1010900011240895AA1BBB1B51E107C0AA1FBB1F47
:1010A000A617B70710F0A61BB70B881F991F5A95F4
:1010B000A9F780959095BC01CD010895F894FFCFD4
:1010C000010001000102040003010001020400020A
:0E10D0000100010204010501000102040106F5
:00000001FF
